:100000000C9434000C9451000C9451000C941A017F
:100010000C9453000C9451000C9451000C9451001A
:100020000C9451000C9451000C9451000C94CD0090
:100030000C9451000C9451000C949E000C945100AF
:100040000C9451000C9451000C9451000C945100EC
:100050000C9451000C9451000C9451000C945100DC
:100060000C9451000C94510011241FBECFEFD8E026
:10007000DEBFCDBF11E0A0E0B1E0E0E1F3E102C0FE
:1000800005900D92A83DB107D9F721E0A8EDB1E0A8
:1000900001C01D92AB3EB207E1F70E94A0040C9490
:1000A00086090C9400001F920F920FB60F92112434
:1000B0002F933F934F935F936F937F938F939F9370
:1000C000AF93BF93EF93FF93319924C063E081E036
:1000D0000E9447048BE991E00E9494046DE081E066
:1000E0000E94470486ED91E00E94940481E0809391
:1000F000D901FF91EF91BF91AF919F918F917F9126
:100100006F915F914F913F912F910F900FBE0F9084
:100110001F9018953299EDCF6DE081E00E94470461
:100120008DE991E00E94940463E081E00E9447041D
:1001300086ED91E00E94940482E0D9CF1F920F9245
:100140000FB60F9211242F933F938F939F9380911B
:10015000D8018823C9F0359A8091DA019091DB01AA
:1001600001969093DB018093DA012091E3013091B5
:10017000E401220F331F2817390730F41092D801F9
:100180001092DB011092DA019F918F913F912F9194
:100190000F900FBE0F901F9018951F920F920FB6E1
:1001A0000F9211242F936F937F938F939F9320919E
:1001B00004018091020165E00E942406911114C09F
:1001C000213091F45B9B14C05B98809102018F5F9A
:1001D000809302019F918F917F916F912F910F904A
:1001E0000FBE0F901F90189580910401823069F71F
:1001F0005B9AEBCF9C01E1E8F0E0908198609083FE
:10020000AFE6B0E09C9192609C933093890020937C
:100210008800808184608083089594B5926094BD45
:10022000EEE6F0E090819260908387BD85B58460B2
:1002300085BD08951F920F920FB60F9211248F93D0
:100240009F938091D901813009F08AC01B9912C017
:100250001092EA011C9911C01092E7018091E80107
:10026000811117C08091EA01882359F081E08093C1
:10027000E9013BC08093EA01EDCF81E08093E70183
:10028000EDCF8091E7018823C9F182E08093E901F5
:1002900018C08091E8018130D1F48091EA0188236F
:1002A00031F08091E701882311F083E0E0CF809165
:1002B000EA01811123C08091E70181111FC01092D2
:1002C000E9018091E0019091E101019713C08091D3
:1002D000E801823089F58091EA01811123C0809183
:1002E000E70181111FC01092E9018091E001909116
:1002F000E10101969093E1018093E0019091E90181
:100300008091E801981739F081E08093E2018091B3
:10031000E9018093E8019F918F910F900FBE0F909C
:100320001F9018958091EA01882341F38091E7019D
:10033000882321F383E0AACF8091EA01811106C0CE
:100340008091E701882311F082E091CF8091EA014A
:100350008823A1F28091E7018111D0CF81E096CF6F
:100360008091D901823051F61B9912C01092EA0196
:100370001C9912C01092E7018091E801811119C007
:100380008091EA01882361F081E08093E9013DC01A
:1003900081E08093EA01ECCF81E08093E701ECCF2C
:1003A0008091E701882309F4A9CF82E08093E901D5
:1003B00018C08091E8018130D1F48091EA0188234E
:1003C00031F08091E701882311F083E0DECF809146
:1003D000EA01811193CF8091E70181118FCF1092B3
:1003E000E9018091DE019091DF01019713C08091B6
:1003F000E801823001F58091EA01811110C08091FD
:10040000E70181110CC01092E9018091DE01909109
:10041000DF0101969093DF018093DE016FCF809121
:10042000EA01882309F46ACF8091E701882309F45F
:1004300065CF83E0BBCF8091EA01811106C0809136
:10044000E701882311F082E0A0CF8091EA018823A0
:1004500009F454CF8091E701811150CF81E0A6CFFC
:1004600063E30E9418069695892F90E00895880FFF
:10047000991F880F991F8B5F9E4F0895880F991FB2
:10048000FC01E759FE4F80819181089562E50E9449
:1004900018069695892F90E0CC96089584B1877EB2
:1004A00084B985B1886185B9E8E6F0E08081816032
:1004B0008083EBE6F0E08081886180833D9A7894C8
:1004C00008950F931F93CF938091E701811142C04C
:1004D0008091EA0181113EC01092E8012091E20171
:1004E0003091D90181E090E0313011F090E080E06E
:1004F00030E082239323892B09F44AC01092E20151
:1005000060E081E00E94470483ED91E00E94940442
:100510008091E0019091E10162E50E941806C92FE7
:10052000C6950C2F10E0045C1F4F1093010100933F
:10053000000184E690E00E9435098017110609F455
:100540007CC06CE36C0F84E690E0CF911F910F911B
:100550000C943D098091E701811108C08091EA0166
:10056000882321F081E08093E801B8CF8091E701F2
:10057000882331F08091EA01811102C082E0F3CF3B
:1005800083E08093E8018091E8018093E901A6CFA0
:100590002091E2013091D90181E090E0323011F0F8
:1005A00090E080E030E082239323892B09F445C05A
:1005B0001092E2016EE080E00E94470483ED91E03A
:1005C0000E9494048091DE019091DF0163E30E9418
:1005D0001806C92FC6958C2F90E09C01220F331F5F
:1005E000220F331F2B5F3E4F3093E6012093E5012E
:1005F0009093DD018093DC01880F991FFC01E7597E
:10060000FE4F808191818093E3019093E40120E08B
:10061000382F50E040E060E072E18AE790E00E940D
:100620004606215027BD88EC90E00E9435098C17C2
:1006300021F06C2F88EC90E088CFCF911F910F9123
:1006400008953B9A8FE599E00197F1F700C000000B
:100650003B988BE091E00197F1F700C000003399DF
:100660000AC0339BFECF87EC90E00197F1F700C002
:10067000000081E0089580E008953B9A43988AE065
:100680008A95F1F700C03B988FEE90E00197F1F763
:1006900000C0000008953B9A43988FEE90E00197C8
:1006A000F1F700C000003B989AE09A95F1F700C07E
:1006B0000895CF93DF93D82FC8E0D0FF08C00E94E1
:1006C0003D03D695C150C9F7DF91CF9108950E949F
:1006D0004B03F7CF0E942103882331F08CEC0E945A
:1006E000590384E40C94590308953B9A43988AE093
:1006F0008A95F1F700C03B9890E59A95F1F786B19D
:1007000090EF9A95F1F783FB882780F908951F935E
:10071000CF93DF93D8E011E0C0E00E947503811110
:10072000C12B110FD150C9F78C2FDF91CF911F91A1
:100730000895EF92FF920F931F93CF93DF93CDB75E
:10074000DEB729970FB6F894DEBF0FBECDBF3B983A
:1007500043980E94210381110EC080E029960FB6B4
:10076000F894DEBF0FBECDBFDF91CF911F910F91E7
:10077000FF90EF9008958CEC0E9459038EEB0E943D
:1007800059038E010F5F1F4F7E012AE0E20EF11C1C
:100790000E948703F80181938F01EE15FF05C1F7D1
:1007A0000E9421038823C9F28CEC0E9459038EE435
:1007B0000E9459038B810E9459038C810E94590326
:1007C0008FE70E9459038FE891E00197F1F700C08D
:1007D00000000E942103882309F4BFCF8CEC0E9403
:1007E000590388E40E9459039FEFE9EFF0E091502C
:1007F000E040F040E1F700C0000081E0AFCFCF93D0
:10080000DF93EC010E947503882301F10E9421030C
:100810008823D1F08CEC0E9459038EEB0E9459037F
:100820000E94870388830E94870389830E9487032D
:100830000E9487030E9487030E9487030E94870308
:100840000E9487030E94870381E001C080E0DF915E
:10085000CF9108959BB19F709BB99BB1807F892BED
:100860008BB9299A299A29980895CF93C82F289847
:100870000E942A048C2F8295807F0E942A048FE395
:100880009FE10197F1F700C00000CF910895811119
:1008900004C080E8860F0C94350480ECFBCF84B153
:1008A000836084B98AB1806F8AB98FE59AEE019727
:1008B000F1F700C0000080E30E942A048FE19EE46B
:1008C0000197F1F700C0000080E30E942A048FED39
:1008D00091E00197F1F700C0000080E30E942A0434
:1008E00080E20E942A048FE39FE10197F1F700C0A4
:1008F000000088E20E9435048FE00E94350481E008
:100900000C943504CF93C82F289A0E942A048C2F68
:100910008295807F0E942A048FE39FE10197F1F77F
:1009200000C00000CF910895CF93DF93EC0189912F
:10093000811103C0DF91CF9108950E948204F7CF07
:10094000CF93DF93CDB7DEB762970FB6F894DEBFD3
:100950000FBECDBF0E944F0487B117B888B1866023
:1009600088B98AB18C608AB98BB11BB80E944E02DB
:100970008AE698E10E94FA00809168008260809384
:10098000680080916C00866080936C00789460E0D1
:1009900080E00E9447048FE991E00E94940460E0A7
:1009A00081E00E94470489EA91E00E9494042FEFBD
:1009B00047EA81E6215040408040E1F700C0000056
:1009C00081E00E94350484E690E00E943509182FEA
:1009D00088EC90E00E94350994EC910F953130F449
:1009E000212F30E030930101209300018A3178F407
:1009F00090E09093DD018093DC01880F991F880FB0
:100A0000991F8B5F9E4F9093E6018093E501E091E3
:100A1000DC01F091DD01EE0FFF1FE759FE4F8081F1
:100A200091818093E3019093E40120E0382F50E01E
:100A300040E060E072E18AE790E00E944606C9016A
:100A400001970E940D010E94990365E0262E312C2A
:100A500072EB472E71E0572ECE0101964C01E9EB67
:100A60006E2EE1E07E2E7E019DE0E90EF11CFCEB96
:100A7000AF2EF1E0BF2E6E0128E0C20ED11CCE01D8
:100A800041960E94FF038823D1F32A898989322F56
:100A9000282F49E0429FC001439F900D1124B101CE
:100AA0000E9432068B011E5F98012F7033274AE0A7
:100AB000429FC001439F900D11241F8234E0969500
:100AC00087953A95E1F79F938F93C80144E09695F7
:100AD00087954A95E1F79F938F935F924F921F926C
:100AE00088E08F939F928F920E9487060FB6F894AA
:100AF000DEBF0FBECDBF003496E0190738F460E0CA
:100B000080E00E944704C4010E9494040E94610294
:100B1000188A809101018F93809100018F937F92B9
:100B20006F921F9224E02F93FF92EF920E9487060C
:100B300060E081E00E944704C7010E9494041C8683
:100B40008091E6018F938091E5018F93BF92AF92E0
:100B50001F9244E04F93DF92CF920E9487066DE090
:100B600080E00E944704C6010E9494048091000125
:100B70009091010124E0880F991F2A95E1F7081B45
:100B8000190B0FB6F894DEBF0FBECDBF003892E050
:100B900019075CF066E080E00E9447048FEB91E06B
:100BA0000E9494040E946A036ACF00321105F4F097
:100BB00022E02093040180910301823021F480918E
:100BC000D801813081F481E08093D8015A9866E0A1
:100BD00080E00E94470484EC91E00E94940442E08B
:100BE00040930301DFCF1092D801F0CF1092D801CB
:100BF00017FD0FC011E0109304015A9866E080E0E1
:100C00000E94470489EC91E00E9494041093030130
:100C1000C9CF109204015A9A5B9866E080E00E9466
:100C200047048EEC91E00E94940410920301BACF25
:100C3000991B79E004C0991F961708F0961B881F2E
:100C40007A95C9F78095089587FB082E062687FDBB
:100C5000819567FD61950E9418060EF4919507FC39
:100C600081950895AA1BBB1B51E107C0AA1FBB1F9A
:100C7000A617B70710F0A61BB70B881F991F5A9528
:100C8000A9F780959095BC01CD010895052E97FB9D
:100C90001EF400940E945D0657FD07D00E94650671
:100CA00007FC03D04EF40C945D06509540953095AA
:100CB00021953F4F4F4F5F4F0895909580957095C8
:100CC00061957F4F8F4F9F4F0895A1E21A2EAA1B67
:100CD000BB1BFD010DC0AA1FBB1FEE1FFF1FA217EC
:100CE000B307E407F50720F0A21BB30BE40BF50BE9
:100CF000661F771F881F991F1A9469F76095709572
:100D0000809590959B01AC01BD01CF010895AEE0A7
:100D1000B0E0EDE8F6E00C945D090D891E898F893D
:100D2000988D26E02C831A83098397FF02C080E008
:100D300090E801979E838D83AE01455E5F4F698D7C
:100D40007A8DCE0101960E94B7064D815E8157FDD6
:100D50000AC02F813885421753070CF49A01020FFD
:100D6000131FF80110822E96E4E00C947909ABE091
:100D7000B0E0EDEBF6E00C944F097C013B018A01F9
:100D8000FC0117821682838181FFC8C1CE010196C2
:100D90005C01F7019381F30193FD859193FF8191AC
:100DA0003F01882309F453C1853239F493FD8591BD
:100DB00093FF81913F01853229F4B70190E00E94B1
:100DC000A708E7CF912C212C312CFFE1F31538F047
:100DD0008B3211F190F4803209F1833229F137FC22
:100DE0003CC020ED280F2A3050F536FE20C08AE0A6
:100DF000989E200D1124922E06C08D3291F08033E2
:100E000071F7689430F8F30193FD859193FF819118
:100E10003F018111DACF21C0689431F8689432F82B
:100E2000F2CF689433F8EFCF689434F8ECCFEAE06F
:100E30002E9E200D1124222E689435F8E4CF8E3298
:100E400029F436FC04C1689436F8DDCF8C3619F4E9
:100E5000689437F8D8CF8836B1F2982F9F7D955493
:100E60009330E0F08336A1F18337C1F1833509F087
:100E700063C02801F2E04F0E511CF801C080D18000
:100E8000692D70E036FC02C06FEF7FEFC6010E9453
:100E900091084C01689437F882010AC00C5F1F4F1B
:100EA000FFE3F98388248394912C6501E89437F853
:100EB00033FE2DC0522C8114910471F5552009F494
:100EC00068CFB70180E290E00E94A7085A94F6CF5D
:100ED000F801808189830E5F1F4FE4CF2801F2E083
:100EE0004F0E511CF801C080D180692D70E036FC96
:100EF00002C06FEF7FEFC6010E949C084C01820187
:100F0000D5CFB70180E290E00E94A7082A94281468
:100F1000190409F0B0F7CECFF60137FC859137FE02
:100F200081916F01B70190E00E94A70851105A9477
:100F3000F1E08F1A9108BFCF843619F0893609F095
:100F400077C0F80137FE6BC0608171818281938127
:100F50000C5F1F4FF32DFF763F2E97FF09C0909532
:100F60008095709561957F4F8F4F9F4F689437F8AC
:100F70002AE030E0A5010E94D708C82ECA188C2CA0
:100F8000432C36FE0CC0E89440F8C91440F434FEFB
:100F900005C032FC03C0F32DFE7E4F2E892C44FE8B
:100FA00095C0FE01EC0DF11D8081803309F087C0F2
:100FB000242D297E422E842D8870582E43FC95C006
:100FC00040FE8FC09C2C821418F42C0C922C981884
:100FD00044FE91C0B70180E390E00E94A70842FE62
:100FE00009C088E790E041FE02C088E590E0B701C3
:100FF0000E94A708C91408F48AC0CA94D12C9FEF94
:10100000C91AD90ACA0CDB1CF60182916F01B7011B
:1010100090E00E94A708AC14BD04B1F74FCF6081E7
:101020007181072E000C880B990B0E5F1F4F92CF1A
:10103000D32CE894D4F82AE030E0853739F1232D19
:10104000297FD22E8F3601F148F48835A9F0F701B7
:10105000868197812B96E2E10C946B09803749F0E9
:101060008837A9F7D4FE02C06894D2F820E130E0B6
:101070000DC06894D4F8F6CF34FE03C0822F86608A
:10108000D82E20E132E002C028E030E0F801D7FE9F
:101090000FC060817181828193810C5F1F4FA50118
:1010A0000E94D708C82ECA183D2CE89437F867CF9D
:1010B0006081718190E080E00E5F1F4FF0CF42FCB5
:1010C00002C0839478CF8394839475CF842D8678DF
:1010D00009F471CFF6CFB70180E290E00E94A70833
:1010E00083948214C0F3512C73CF522C581882145D
:1010F00008F46ECFF8CF842D867809F47BCF8BE28D
:1011000041FE80E247FC8DE2B70190E071CFB7016C
:1011100080E390E00E94A7089A946CCF8FEF9FEF36
:1011200099CFFC010590615070400110D8F780956F
:1011300090958E0F9F1F0895FC01615070400190A3
:101140000110D8F7809590958E0F9F1F08950F93EB
:101150001F93CF93DF93182F092FEB018B8181FD14
:1011600009C01FEF0FEF812F902FDF91CF911F91BB
:101170000F91089582FF14C02E813F818C819D8143
:10118000281739073CF4E881F981CF01019699834A
:10119000888310838E819F8101969F838E83E3CF06
:1011A000E885F985812F0995892BA1F3DACFFA011A
:1011B000AA27283051F1203181F1E8946F936E7F96
:1011C0006E5F7F4F8F4F9F4FAF4FB1E03ED0B4E087
:1011D0003CD0670F781F891F9A1FA11D680F791FC8
:1011E0008A1F911DA11D6A0F711D811D911DA11DD9
:1011F00020D009F468943F912AE0269F11243019E9
:10120000305D3193DEF6CF010895462F4770405D83
:101210004193B3E00FD0C9F7F6CF462F4F70405D32
:101220004A3318F0495D31FD4052419302D0A9F78D
:10123000EACFB4E0A6959795879577956795BA9587
:10124000C9F700976105710508959B01AC010A2E4D
:1012500006945795479537952795BA95C9F7620F24
:10126000731F841F951FA01D0895F999FECF92BD8D
:1012700081BDF89A992780B50895262FF999FECF58
:1012800092BD81BDF89A019700B4021639F01FBAD9
:1012900020BD0FB6F894FA9AF99A0FBE08952F92CE
:1012A0003F924F925F926F927F928F929F92AF92F6
:1012B000BF92CF92DF92EF92FF920F931F93CF9343
:1012C000DF93CDB7DEB7CA1BDB0B0FB6F894DEBFDA
:1012D0000FBECDBF09942A88398848885F846E8400
:1012E0007D848C849B84AA84B984C884DF80EE804A
:1012F000FD800C811B81AA81B981CE0FD11D0FB653
:10130000F894DEBF0FBECDBFED010895F894FFCF76
:1013100050003003034333000043332300443300C1
:101320000044332300453300004633000046332396
:10133000004733000047332300413300004133238B
:10134000004233000043340000433423004434009F
:101350000044342300453400004634000046342362
:101360000047340000473423004134000041342357
:1013700000423400004335000083008B0093009C42
:1013800000A500B000B900C400D000DC00E900F7FF
:101390000006011501260137014A015D017201882D
:1013A000019F01B801D201EE010B023C003E004357
:1013B00068726973204C696D0050726F6A6563745E
:1013C000200025642E256420002564002573004C30
:1013D0004F414400484F5420005741524D00434F65
:0813E0004F4C002020202000EA
:00000001FF
