:100000000C9434000C9451000C9451000C94700129
:100010000C9451000C9451000C9451000C949401D8
:100020000C9451000C9451000C9451000C9451000C
:100030000C9451000C9451000C9451000C945100FC
:100040000C9451000C9451000C9475000C945100C8
:100050000C9451000C9451000C9451000C945100DC
:100060000C9451000C94510011241FBECFEFD8E026
:10007000DEBFCDBF11E0A0E0B1E0E0EEFBE002C0EA
:1000800005900D92A23DB107D9F721E0A2EDB1E0B4
:1000900001C01D92AA3FB207E1F70E9417020C941B
:1000A000EE050C9400009093C5008093C40086E098
:1000B0008093C200E1ECF0E0808188618083539AF4
:1000C0005B9808959091C00095FFFCCF8093C60087
:1000D0000895CF93DF93EC018991811103C0DF91E3
:1000E000CF9108950E946200F7CF1F920F920FB632
:1000F0000F9211248F93EF93FF938091C600E091AC
:10010000D201F0E0E751FE4F80838091D2018F5FF2
:100110008093D2018091D201803139F41092D201C2
:1001200081E08093D3011092F901FF91EF918F91BB
:100130000F900FBE0F901F901895ECE7F0E08081B4
:100140008F778083808180648083808180628083D8
:10015000EAE7F0E080818760808380818068808327
:10016000808187788083089590917C00987F909318
:100170007C00813089F480917C00816080937C00D8
:1001800080917A00806480937A0080917A0086FD65
:10019000FCCF809179000895823021F480917C0019
:1001A0008260ECCF833021F480917C008360E6CFC5
:1001B000843021F480917C008460E0CF853001F7A9
:1001C00080917C008560DACF9BB19F709BB99BB119
:1001D000807F892B8BB9299A299A29980895CF93E2
:1001E000C82F28980E94E4008C2F8295807F0E945F
:1001F000E4008FE39FE10197F1F700C00000CF9189
:100200000895811104C080E8860F0C94EF0080EC03
:10021000FBCF84B1836084B98AB1806F8AB98FE5DE
:100220009AEE0197F1F700C0000080E30E94E4001D
:100230008FE19EE40197F1F700C0000080E30E9487
:10024000E4008FED91E00197F1F700C0000080E33A
:100250000E94E40080E20E94E4008FE39FE10197A6
:10026000F1F700C0000088E20E94EF008FE00E94DA
:10027000EF0081E00C94EF00CF93C82F289A0E94E2
:10028000E4008C2F8295807F0E94E4008FE39FE141
:100290000197F1F700C00000CF910895CF93DF934D
:1002A000EC018991811103C0DF91CF9108950E94E3
:1002B0003C01F7CFE0EBF0E0808182608083109218
:1002C000E70123981092D501EBE6F0E08081886089
:1002D0008083E8E6F0E080818160808378940895EF
:1002E0001F920F920FB60F9211248F931B9916C075
:1002F00080916B00877F80936B001092E70187E607
:100300008093B3008091700082608093700010929F
:10031000B2008091B10082608093B1008F910F9004
:100320000FBE0F901F9018951F920F920FB60F924D
:1003300011242F933F934F935F936F937F938F93EA
:100340009F93AF93BF93EF93FF938091E701811148
:1003500028C01B9915C080E48093E70181E0809359
:10036000E8011092D4018091B100887F8093B100A0
:100370008FEC8093B3008091B10082608093B100D4
:10038000FF91EF91BF91AF919F918F917F916F916D
:100390005F914F913F912F910F900FBE0F901F9043
:1003A00018958091E70186FFEBCF8091E8018823C3
:1003B00059F01B9B05C09091D401982B9093D401C8
:1003C000880F8093E801DCCF8091B100887F809313
:1003D000B1001B9B26C08091D501E82FF0E0EA52C6
:1003E000FE4F9091D40190838F5F8093D501E82FC9
:1003F000F0E0EA52FE4F1082803169F48FE780937B
:10040000E50160E081E00E94010186ED91E00E943B
:100410004E011092D50180916B00886080936B0033
:10042000AFCF8091E70180628093E701F4CFCF9353
:10043000DF93CDB7DEB761970FB6F894DEBF0FBE7E
:10044000CDBF0E9409010E949D0087E690E00E94B6
:1004500053000E945A018091C10080688093C100BE
:10046000789460E080E00E94010184E191E00E94C4
:100470004E0160E081E00E9401018EE191E00E9466
:100480004E012FEF37EA81E6215030408040E1F7FE
:1004900000C0000081E00E94EF00198A60E080E067
:1004A0000E940101809101018F93809100018F933F
:1004B00084E291E09F938F931F9281E18F938E014D
:1004C0000F5F1F4F1F930F930E940903C8010E94E3
:1004D0004E010FB6F894DEBF0FBECDBFB12C2AE09F
:1004E000922E34E2E32E31E0F32E41E1A42E59EEB8
:1004F000C52E51E0D52E80E00E94B4003FEF91EE72
:1005000024E0315090402040E1F700C0000098ED19
:10051000980F953108F04AC08852853108F442C0DE
:10052000B39460E080E00E9401018B2D692D0E9450
:10053000FD02E92FF0E0EE0FFF1FE050FF4F818139
:100540008F9380818F93FF92EF921F92AF921F93B0
:100550000F930E940903C8010E944E010FB6F89440
:10056000DEBF0FBECDBF8091D301882321F260E0B2
:1005700081E00E9401011092F901DF92CF92FF9277
:10058000EF921F92AF921F930F930E940903C8012D
:100590000E944E011092D3010FB6F894DEBF0FBE39
:1005A000CDBFA9CF80E00E94B400B6CF96EA980FE5
:1005B000953148F48A55853110F0BA94B2CF80E075
:1005C0000E94B400F7CF9DE3980F953160F6835CED
:1005D000853178F08B2D692D0E94FD02E92FF0E026
:1005E000EE0FFF1FE050FF4F808191810E94690054
:1005F000BACF80E00E94B400EACF991B79E004C032
:10060000991F961708F0961B881F7A95C9F7809551
:100610000895AEE0B0E0EFE0F3E00C94C5050D897D
:100620001E898F89988D26E02C831A83098397FF72
:1006300002C080E090E801979E838D83AE01455E05
:100640005F4F698D7A8DCE0101960E9439034D81ED
:100650005E8157FD0AC02F813885421753070CF47D
:100660009A01020F131FF80110822E96E4E00C94F9
:10067000E105ABE0B0E0EFE3F3E00C94B7057C01FB
:100680003B018A01FC0117821682838181FFC8C168
:10069000CE0101965C01F7019381F30193FD8591F1
:1006A00093FF81913F01882309F453C1853239F4C6
:1006B00093FD859193FF81913F01853229F4B70124
:1006C00090E00E942905E7CF912C212C312CFFE1ED
:1006D000F31538F08B3211F190F4803209F1833246
:1006E00029F137FC3CC020ED280F2A3050F536FEAA
:1006F00020C08AE0989E200D1124922E06C08D32D3
:1007000091F0803371F7689430F8F30193FD85918F
:1007100093FF81913F018111DACF21C0689431F8B4
:10072000689432F8F2CF689433F8EFCF689434F8D5
:10073000ECCFEAE02E9E200D1124222E689435F88D
:10074000E4CF8E3229F436FC04C1689436F8DDCF4C
:100750008C3619F4689437F8D8CF8836B1F2982FD0
:100760009F7D95549330E0F08336A1F18337C1F13A
:10077000833509F063C02801F2E04F0E511CF801E7
:10078000C080D180692D70E036FC02C06FEF7FEF32
:10079000C6010E9413054C01689437F882010AC013
:1007A0000C5F1F4FFFE3F98388248394912C65012C
:1007B000E89437F833FE2DC0522C8114910471F562
:1007C000552009F468CFB70180E290E00E94290526
:1007D0005A94F6CFF801808189830E5F1F4FE4CFD2
:1007E0002801F2E04F0E511CF801C080D180692D24
:1007F00070E036FC02C06FEF7FEFC6010E941E055D
:100800004C018201D5CFB70180E290E00E9429051A
:100810002A942814190409F0B0F7CECFF60137FC5A
:10082000859137FE81916F01B70190E00E94290503
:1008300051105A94F1E08F1A9108BFCF843619F005
:10084000893609F077C0F80137FE6BC0608171818D
:10085000828193810C5F1F4FF32DFF763F2E97FF10
:1008600009C090958095709561957F4F8F4F9F4FF0
:10087000689437F82AE030E0A5010E945905C82E97
:10088000CA188C2C432C36FE0CC0E89440F8C914CE
:1008900040F434FE05C032FC03C0F32DFE7E4F2E23
:1008A000892C44FE95C0FE01EC0DF11D8081803342
:1008B00009F087C0242D297E422E842D8870582E61
:1008C00043FC95C040FE8FC09C2C821418F42C0C65
:1008D000922C981844FE91C0B70180E390E00E94EA
:1008E000290542FE09C088E790E041FE02C088E584
:1008F00090E0B7010E942905C91408F48AC0CA947F
:10090000D12C9FEFC91AD90ACA0CDB1CF6018291BF
:100910006F01B70190E00E942905AC14BD04B1F746
:100920004FCF60817181072E000C880B990B0E5FF1
:100930001F4F92CFD32CE894D4F82AE030E08537CB
:1009400039F1232D297FD22E8F3601F148F48835D5
:10095000A9F0F701868197812B96E2E10C94D305EB
:10096000803749F08837A9F7D4FE02C06894D2F8DE
:1009700020E130E00DC06894D4F8F6CF34FE03C017
:10098000822F8660D82E20E132E002C028E030E0DD
:10099000F801D7FE0FC060817181828193810C5F65
:1009A0001F4FA5010E945905C82ECA183D2CE89476
:1009B00037F867CF6081718190E080E00E5F1F4F54
:1009C000F0CF42FC02C0839478CF8394839475CF98
:1009D000842D867809F471CFF6CFB70180E290E0DC
:1009E0000E94290583948214C0F3512C73CF522C9A
:1009F0005818821408F46ECFF8CF842D867809F445
:100A00007BCF8BE241FE80E247FC8DE2B70190E0B4
:100A100071CFB70180E390E00E9429059A946CCFD2
:100A20008FEF9FEF99CFFC0105906150704001104E
:100A3000D8F7809590958E0F9F1F0895FC01615007
:100A4000704001900110D8F7809590958E0F9F1FF0
:100A500008950F931F93CF93DF93182F092FEB0166
:100A60008B8181FD09C01FEF0FEF812F902FDF9148
:100A7000CF911F910F91089582FF14C02E813F8165
:100A80008C819D81281739073CF4E881F981CF01D9
:100A900001969983888310838E819F8101969F831D
:100AA0008E83E3CFE885F985812F0995892BA1F302
:100AB000DACFFA01AA27283051F1203181F1E894E8
:100AC0006F936E7F6E5F7F4F8F4F9F4FAF4FB1E041
:100AD0003ED0B4E03CD0670F781F891F9A1FA11D3C
:100AE000680F791F8A1F911DA11D6A0F711D811D3D
:100AF000911DA11D20D009F468943F912AE0269F02
:100B000011243019305D3193DEF6CF010895462F60
:100B10004770405D4193B3E00FD0C9F7F6CF462F41
:100B20004F70405D4A3318F0495D31FD40524193AA
:100B300002D0A9F7EACFB4E0A69597958795779567
:100B40006795BA95C9F700976105710508959B01EE
:100B5000AC010A2E06945795479537952795BA9577
:100B6000C9F7620F731F841F951FA01D08952F9250
:100B70003F924F925F926F927F928F929F92AF922D
:100B8000BF92CF92DF92EF92FF920F931F93CF937A
:100B9000DF93CDB7DEB7CA1BDB0B0FB6F894DEBF11
:100BA0000FBECDBF09942A88398848885F846E8437
:100BB0007D848C849B84AA84B984C884DF80EE8081
:100BC000FD800C811B81AA81B981CE0FD11D0FB68A
:100BD000F894DEBF0FBECDBFED010895F894FFCFAE
:100BE0002701380149015A016B017C018D019E01E9
:100BF000AF01C0014368726973204C696D004C619C
:100C00006220390025730048656C6C6F202020201D
:100C10002020202020202000486F7720617265204E
:100C2000796F753F2020202000526564656B6F70DE
:100C30007020697320676F6174003031323334354E
:100C40003637383930313233343500596573202026
:100C5000202020202020202020202000556E6F20E2
:100C600020202020202020202020202000474D452B
:100C700020746F20746865206D6F6F6E2000446F64
:100C8000676520436F696E203A2920202020005795
:100C9000686963682076616363696E653F20200040
:100CA0005768617473207572206E616D653F2020F6
:020CB000000042
:00000001FF
