:100000000C9434000C9451000C9451000C94510049
:100010000C9451000C9451000C9451000C9451001C
:100020000C9451000C9451000C9451000C9453000A
:100030000C9451000C9451000C9451000C945100FC
:100040000C9451000C9451000C9451000C945100EC
:100050000C9451000C9451000C9451000C945100DC
:100060000C9451000C94510011241FBECFEFD8E026
:10007000DEBFCDBF11E0A0E0B1E0E0E0F4E002C0FF
:1000800005900D92AA33B107D9F721E0AAE3B1E0B8
:1000900001C01D92AC33B207E1F70E945E010C94DF
:1000A000FE010C9400001F920F920FB60F921124C4
:1000B0008F9380913A01882371F0809100018633FB
:1000C00081F480E380930201809301018093000119
:1000D00081E080933B018F910F900FBE0F901F9096
:1000E000189580910201893399F480E3809302018D
:1000F000809101018F5F80930101809101018A331A
:1001000039F780E380930101809100018F5FDECF9A
:10011000809102018F5F80930201EFCF9C01E1E8A3
:10012000F0E0908198609083AFE6B0E09C9192609F
:100130009C93309389002093880080818460808321
:100140000895ECE7F0E080818F7780838081806480
:100150008083808180628083EAE7F0E0808187602D
:100160008083808180688083808187788083089500
:1001700090917C00987F90937C00813089F48091ED
:100180007C00816080937C0080917A008064809301
:100190007A0080917A0086FDFCCF809179000895E5
:1001A000823021F480917C008260ECCF833021F496
:1001B00080917C008360E6CF843021F480917C00C4
:1001C0008460E0CF853001F780917C008560DACFD4
:1001D0009BB19F709BB99BB1807F892B8BB9299A6A
:1001E000299A29980895CF93C82F28980E94E8004B
:1001F0008C2F8295807F0E94E8008FE39FE101971A
:10020000F1F700C00000CF910895811104C080E88B
:10021000860F0C94F30080ECFBCF84B1836084B92B
:100220008AB1806F8AB98FE59AEE0197F1F700C025
:10023000000080E30E94E8008FE19EE40197F1F75F
:1002400000C0000080E30E94E8008FED91E001977C
:10025000F1F700C0000080E30E94E80080E20E9405
:10026000E8008FE39FE10197F1F700C0000088E20A
:100270000E94F3008FE00E94F30081E00C94F300F1
:10028000CF93C82F289A0E94E8008C2F8295807FF8
:100290000E94E8008FE39FE10197F1F700C00000A2
:1002A000CF910895CF93DF93EC018991811103C021
:1002B000DF91CF9108950E944001F7CFCF93DF9354
:1002C00000D000D01F92CDB7DEB70E940D010E9472
:1002D000A10060E080E00E94050183E091E00E94BF
:1002E000520160E081E00E9405018DE091E00E94F2
:1002F00052012FEF87EA91E6215080409040E1F7CC
:1003000000C0000081E00E94F3008AE698E10E94AC
:100310008E00789460E080E00E94050183E191E026
:100320000E94520101E082E0E82E10E39EE2F92EE5
:1003300080E00E94B80098ED980F9531C0F5885282
:10034000853188F180913A01813009F054C01092D2
:100350003A0180913B01882359F380913A01813021
:1003600039F710923B0180913A01823009F360E045
:1003700080E00E9405018AE291E00E94520160E063
:1003800080E00E9405018091000189838091010134
:100390008A83FB82809102018C831D82CE010196AB
:1003A0000E945201C5CF80E00E94B800C8CF90EBF8
:1003B000980F993270F68055893290F080913A0109
:1003C000811112C060E00E94050186E291E00E9466
:1003D0005201109302011093010110930001B9CF53
:1003E00080E00E94B800E7CF80913A01813019F493
:1003F000E0923A01AECF00933A01ABCFF894FFCF31
:100400003030304368726973204C696D004C616212
:10041000203800302E3030202020202020202020A6
:1004200020202020200030302E30202020202020AE
:0A04300020202020202020200000C2
:00000001FF
