:100000000C9434000C943E000C943E000C943E0082
:100010000C943E000C943E000C943E000C943E0068
:100020000C943E000C943E000C943E000C943E0058
:100030000C943E000C943E000C943E000C943E0048
:100040000C943E000C943E000C943E000C943E0038
:100050000C943E000C943E000C943E000C943E0028
:100060000C943E000C943E0011241FBECFEFD8E04C
:10007000DEBFCDBF0E94B3000C9414010C940000AD
:100080009BB19F709BB99BB1807F892B8BB9299ABB
:10009000299A29980895CF93C82F28980E94400044
:1000A0008C2F8295807F0E9440008FE39FE1019713
:1000B000F1F700C00000CF910895811104C080E8DD
:1000C000860F0C944B0080ECFBCF84B1836084B925
:1000D0008AB1806F8AB98FE59AEE0197F1F700C077
:1000E000000080E30E9440008FE19EE40197F1F759
:1000F00000C0000080E30E9440008FED91E0019776
:10010000F1F700C0000080E30E94400080E20E94FE
:1001100040008FE39FE10197F1F700C0000088E203
:100120000E944B008FE00C944B00CF93C82F289A6D
:100130000E9440008C2F8295807F0E9440008FE3B8
:100140009FE10197F1F700C00000CF910895CF9390
:10015000DF93EC018991811103C0DF91CF91089564
:100160000E949500F7CF88B1846188B90E9465002C
:1001700081E00E944B0010E000E0D0E0C0E08AE0A7
:10018000E82EF12C329BD0E0349BD1E0C801B701BE
:100190000E94EC00892B61F4D11118C0C930A1F084
:1001A000CF5F82E00E944B0080E38C0F0E9495009D
:1001B0002FEF80E792E0215080409040E1F700C0AF
:1001C00000000F5F1F4FDECFC0E0EBCFCC2311F05C
:1001D000C150E7CFC9E0E5CF97FB072E16F4009496
:1001E00007D077FD09D00E94000107FC05D03EF43E
:1001F000909581959F4F0895709561957F4F0895D3
:10020000AA1BBB1B51E107C0AA1FBB1FA617B7073C
:1002100010F0A61BB70B881F991F5A95A9F7809558
:0C0220009095BC01CD010895F894FFCF2B
:00000001FF
