:100000000C9434000C943E000C943E000C943E0082
:100010000C943E000C943E000C943E000C943E0068
:100020000C943E000C943E000C943E000C943E0058
:100030000C943E000C943E000C943E000C943E0048
:100040000C943E000C943E000C943E000C943E0038
:100050000C943E000C943E000C943E000C943E0028
:100060000C943E000C943E0011241FBECFEFD8E04C
:10007000DEBFCDBF0E9481000C94B8000C9400003C
:10008000813011F45A9A08955A9808955A9A2FEF88
:1000900084E39CE0215080409040E1F700C00000E4
:1000A00080E00E9440002FEF84E39CE021508040DC
:1000B0009040E1F700C0000008955A9A2FEF8EE9B2
:1000C00094E2215080409040E1F700C0000080E0C1
:1000D0000E9440002FEF84E39CE02150804090403C
:1000E000E1F700C00000089523B130E0A90102C08B
:1000F000559547958A95E2F7CA018095909581704C
:100100000895529A84B114B88BB11BB885B1886335
:1001100085B983B113B883E00E947400882381F00D
:100120000E9446000E9446000E945D002FEF8EE96B
:1001300094E2215080409040E1F700C00000EBCFF6
:1001400084E00E947400882339F00E9446000E94D7
:1001500046000E944600EACF85E00E947400882392
:1001600029F30E945D000E9446000E945D00F1CFCD
:04017000F894FFCF31
:00000001FF
