:100000000C9434000C9449000C9449000C94490061
:100010000C9449000C9449000C9449000C9449003C
:100020000C9449000C9449000C9449000C9449002C
:100030000C9449000C9449000C9449000C9449001C
:100040000C9449000C9449000C9449000C9449000C
:100050000C9449000C9449000C9449000C944900FC
:100060000C9449000C94490011241FBECFEFD8E036
:10007000DEBFCDBF11E0A0E0B1E0ECE0F5E002C0F2
:1000800005900D92A234B107D9F70E942B010C9470
:1000900084020C940000EF92FF920F931F93CF9372
:1000A000DF9303E0D0E0C0E011E0812F0E948500E3
:1000B000CC0FDD1F80FBEE24E0F8F12CCE0DDF1D10
:1000C0001F5F163091F7015079F7CE01DF91CF9184
:1000D0001F910F91FF90EF900C941602ECE7F0E067
:1000E00080818F778083808180648083808180623B
:1000F0008083EAE7F0E08081876080838081806888
:100100008083808187788083089590917C00987F98
:1001100090937C00813089F480917C008160809391
:100120007C0080917A00806480937A0080917A00CC
:1001300086FDFCCF809179000895823021F4809172
:100140007C008260ECCF833021F480917C0083605E
:10015000E6CF843021F480917C008460E0CF85304C
:1001600001F780917C008560DACF9BB19F709BB9CD
:100170009BB1807F892B8BB9299A299A2998089558
:10018000CF93C82F28980E94B5008C2F8295807F2E
:100190000E94B5008FE39FE10197F1F700C00000D6
:1001A000CF910895811104C080E8860F0C94C0009F
:1001B00080ECFBCF84B1836084B98AB1806F8AB947
:1001C0008FE59AEE0197F1F700C0000080E30E94EE
:1001D000B5008FE19EE40197F1F700C0000080E3D5
:1001E0000E94B5008FED91E00197F1F700C000008B
:1001F00080E30E94B50080E20E94B5008FE39FE19A
:100200000197F1F700C0000088E20E94C0008FE073
:100210000E94C00081E00C94C000CF93C82F289AA0
:100220000E94B5008C2F8295807F0E94B5008FE3DD
:100230009FE10197F1F700C00000CF910895CF939F
:10024000DF93EC018991811103C0DF91CF91089573
:100250000E940D01F7CF0E94DA000E946E000E94FA
:100260004B0060E080E00E94D20084E091E00E94B8
:100270001F0160E081E00E94D2008EE091E00E94C8
:100280001F012FEF87EA91E6215080409040E1F76F
:1002900000C0000081E00E94C0000E941102C82F2F
:1002A000CF706C2F80E00E94D2008FE191E00E941D
:1002B0001F0110E000E080E00E948500853008F01A
:1002C0004CC080E00E9485008530D8F36C2F80E020
:1002D0000E94D20080E391E00E941F016C2F70E029
:1002E0006F5F7F4F6F707727C62F80E00E94D2002C
:1002F0008FE191E00E941F0160E081E00E94D20046
:1003000081E291E00E941F0183E00E948500682F36
:1003100070E084E0759567958A95E1F7D62F81E0C6
:100320000E94D20082E391E00E941F018FE39CE9CA
:100330000197F1F700C00000CD13BBCF0F5F1F4F37
:100340000233110509F0B7CF60E080E00E94D200CF
:1003500084E391E00E941F01FFCF9AE6980F9B3043
:1003600058F686598B3068F06C2F80E00E94D200DE
:1003700080E391E00E941F016C2F70E0615F7F4F6E
:10038000B1CF80E00E948500ECCF8F929F92AF9218
:10039000BF92CF92DF92EF92FF92CF93DF93EC0167
:1003A000688179818A819B8161157105810591053B
:1003B00021F464E279ED8BE597E02DE133EF41E044
:1003C00050E00E94210249015A019B01AC01A7EAB9
:1003D000B1E40E9440026B017C01ACEEB4EFA501D8
:1003E00094010E944E02DC01CB018C0D9D1DAE1DBF
:1003F000BF1DB7FF03C00197A109B0488883998347
:10040000AA83BB839F77DF91CF91FF90EF90DF901E
:10041000CF90BF90AF909F908F9008950E94C5019C
:10042000089580E091E00E94C5010895B0E0A0E049
:100430008093000190930101A0930201B093030106
:100440000895052E97FB1EF400940E94380257FD74
:1004500007D00E94530207FC03D04EF40C943802DC
:1004600050954095309521953F4F4F4F5F4F0895E0
:1004700090958095709561957F4F8F4F9F4F089510
:100480000E947502A59F900DB49F900DA49F800DB2
:10049000911D11240895B7FF0C9440020E94400260
:1004A000821B930B0895A1E21A2EAA1BBB1BFD0110
:1004B0000DC0AA1FBB1FEE1FFF1FA217B307E40743
:1004C000F50720F0A21BB30BE40BF50B661F771F9B
:1004D000881F991F1A9469F760957095809590957B
:1004E0009B01AC01BD01CF010895A29FB001B39F54
:1004F000C001A39F700D811D1124911DB29F700D2D
:0C050000811D1124911D0895F894FFCF77
:10050C00010000004368726973204C696D004C61F6
:10051C006220362047616D652053746172740078D7
:10052C0000202020202020202020202020202020DF
:10053C0020005E00596F75206861766520776F6EBC
:02054C0021008C
:00000001FF
